:020000040800F2
:1000000000500020052100082D2000082F200008A6
:1000100031200008332000083520000800000000CF
:100020000000000000000000000000003720000871
:1000300039200008000000003B2000083D20000897
:100040004D2100084D2100084D2100084D210008D8
:100050004D2100084D2100084D21000849200008CD
:100060004D2100084D2100084D2100084D210008B8
:100070004D2100084D2100084D2100084D210008A8
:100080004D2100084D2100084D2100084D21000898
:100090004D2100084D2100084D2100084D21000888
:1000A0004D2100084D2100084D2100084D21000878
:1000B000552000084D2100084D2100084D21000861
:1000C0004D2100084D2100084D2100084D21000858
:1000D0004D210008652000087520000885200008D3
:1000E000952000084D2100084D2100080000000067
:1000F0000000000000000000000000000000000000
:0C01000000000000000000005FF808F1A3
:10010C0010B5054C237833B9044B13B10448AFF345
:10011C0000800123237010BD70000020000000003F
:10012C003834000808B5034B1BB103490348AFF33F
:10013C00008008BD00000000740000203834000866
:10014C00034613F8012B002AFBD1181A013870470B
:10015C0010B504460E4B18784FF47A73B3FBF0F3DA
:10016C000C4A1068B0FBF3F000F08CF868B90F2C57
:10017C0001D901200AE0002221464FF0FF3000F0A7
:10018C0041F8034B5C60002000E0012010BD00BF73
:10019C00000000200800002008B5074A136843F04F
:1001AC0010031360032000F01BF80020FFF7D0FFB2
:1001BC0001F0F0FD002008BD00200240034A116848
:1001CC00034B1B780B441360704700BF9C0000204E
:1001DC0000000020014B1868704700BF9C000020F5
:1001EC00074AD36823F4E0631B041B0C000200F4E1
:1001FC00E060184340F0BF6040F40030D0607047BE
:10020C0000ED00E030B4174BDB68C3F30223C3F1FD
:10021C000704042C28BF04241D1D062D18D9033BEC
:10022C004FF0FF3505FA04F421EA0401994005FA70
:10023C0003F322EA0303194300280BDB0901C9B2BB
:10024C0000F1604000F5614080F8001330BC70474D
:10025C000023E5E700F00F000901C9B2024B195465
:10026C00F4E700BF00ED00E014ED00E000F01F0229
:10027C00400901239340024A42F82030704700BFE6
:10028C0000E100E00138B0F1807F0AD2064B5860E3
:10029C00064AF02182F823100020986007221A6089
:1002AC0070470120704700BF10E000E000ED00E057
:1002BC00042805D0054A136823F004031360704723
:1002CC00024A136843F004031360704710E000E027
:1002DC00704708B5FFF7FCFF08BD000008B590F8A3
:1002EC002130022B03D004238363012008BD026854
:1002FC00136823F00E0313600268136823F00103E4
:10030C0013600368194A934214D0143293421FD0DD
:10031C00143293421ED0143293421ED014329342A4
:10032C001ED01432934202D04FF0807203E04FF48F
:10033C00801200E001220E4B5A60012380F821301C
:10034C00002380F82030436B6BB198470020CDE739
:10035C001022F0E74FF48072EDE74FF48052EAE799
:10036C004FF48032E7E70020C0E700BF08000240EE
:10037C0000000240F0B482B000263546A1E0002C0B
:10038C0059D0012C00D1CE68FF2B68D88446FF2BA6
:10039C0068D8AC00DCF800200F27A74022EA07023F
:1003AC0006FA04F42243CCF800204A6812F0805F6D
:1003BC0000F086805E4A946944F00104946192696D
:1003CC0002F001020192019AAC08A71C594A52F89A
:1003DC00272005F00307BF004FF00F0C0CFA07FCA9
:1003EC0022EA0C0C544A904242D002F580629042B0
:1003FC007FD002F5806290427DD002F580629042FF
:10040C0034D0042235E04D4FBC4214D00BD94C4FA4
:10041C00BC4210D007F58037BC420CD0A7F5801732
:10042C00BC42B1D107E0A7F58017BC4203D007F559
:10043C008037BC42A8D18C687CB1012C08D04261B9
:10044C000826A1E7CE6808369EE7CE680C369BE7F7
:10045C000261082698E7002696E7042694E700F147
:10046C00040C94E7A5F10804A40093E7032200E030
:10047C000022BA4042EA0C0202342E4F47F82420E4
:10048C004A6812F4803F38D02E4C22681A432260FE
:10049C004A6812F4003F36D02A4C62681A436260F4
:1004AC004A6812F4801F34D0264CA2681A43A2600A
:1004BC004A6812F4001F32D0224CE2681343E36006
:1004CC0001350F2D31D80122AA400B6813409A42F6
:1004DC00F6D14C68122CB8D095D8022CB2D07FF63D
:1004EC004EAF032CB7D0112C7FF44EAFCE68043630
:1004FC004AE70122BDE70222BBE7124C226822EA3E
:10050C0003022260C4E70F4C626822EA03026260B5
:10051C00C6E70C4CA26822EA0302A260C8E7094CA9
:10052C00E26822EA0303E360CAE702B0F0BC70475A
:10053C0000100240000001400008014000002110A2
:10054C00000031100004014012B909040161704728
:10055C00016170477047000008B5054B5B690342A9
:10056C0000D108BD024B5861FFF7F4FFF9E700BF5B
:10057C0000040140002800F0A28038B5044690F831
:10058C003D30002B4FD0242384F83D302268136873
:10059C0023F00103136000F09FFB62684A4B9A4200
:1005AC0046D84A4B98428CBF00230123002B40F0C5
:1005BC008880474BA3FB00239B0C22685360616827
:1005CC00414A91423AD801332268136261683E4B2A
:1005DC0099423DD8431E4900B3FBF1F30133C3F3F9
:1005EC000B03042B38BF04232268D361E369216A0F
:1005FC0022680B4313602369E16822680B43936004
:10060C006369A16922680B43D3602268136843F0C5
:10061C000103136000202064202384F83D30206304
:10062C0084F83E0038BD80F83C3001F003FCAAE7AA
:10063C00284B98428CBF00230123B7E74FF49672E6
:10064C0002FB03F3244AA2FB03239B090133BBE700
:10065C00A368BBB9421E01EB4105B2FBF5F20132B6
:10066C00C2F30B02B2FA82F2520932BBC3B901389F
:10067C0001EB4103B0FBF3F30133C3F30B0343F47E
:10068C000043B1E7421E01EB810505EB8505B2FB8A
:10069C00F5F20132C2F30B02B2FA82F25209E4E72C
:1006AC00013801EB810303EB8303B0FBF3F301335C
:1006BC00C3F30B0343F4404396E7012394E7012073
:1006CC0070470120AEE700BFA08601007F841E00AA
:1006DC0083DE1B43FF083D00D34D621082B0084BF4
:1006EC001B68084AA2FB03235B0A00FB03F0019082
:1006FC0000BF019B5A1E0192002BF9D102B070472A
:10070C0008000020D34D621070B582B00446036817
:10071C0013F0010F2CD0AB4B5B6803F00C03042BD4
:10072C001DD0A84B5B6803F00C03082B12D0636838
:10073C00B3F5803F41D0002B55D103F1804303F535
:10074C0004331A6822F480321A601A6822F4802268
:10075C001A6037E09B4B5B6813F4803FE7D0994BF2
:10076C001B6813F4003F03D06368002B00F0AE81CC
:10077C00236813F0020F76D0924B5B6813F00C0FCA
:10078C005FD0904B5B6803F00C03082B54D02369AB
:10079C00002B00F08A808C4B01221A60FFF71AFDA7
:1007AC000546884B1B6813F0020F75D1FFF712FD3D
:1007BC00401B0228F5D903208BE1824A136843F4CD
:1007CC0080331360636843B3FFF704FD05467D4B2C
:1007DC001B6813F4003FCBD1FFF7FCFC401B6428D3
:1007EC00F5D9032075E1B3F5A02F09D0754B1A6824
:1007FC0022F480321A601A6822F480221A60E1E72F
:10080C0003F18043A3F53C331A6842F480221A604A
:10081C001A6842F480321A60D4E7FFF7DBFC054615
:10082C00684B1B6813F4003FA2D0FFF7D3FC401BAE
:10083C006428F5D903204CE1624B5B6813F4803FCC
:10084C00A5D1604B1B6813F0020F04D02369012B58
:10085C0001D001203DE15B4A136823F0F803616984
:10086C0043EAC1031360236813F0080F32D0A36965
:10087C00002B5BD0554B01221A60FFF7ABFC0546F1
:10088C00504B5B6A13F0020F21D1FFF7A3FC401B06
:10089C000228F5D903201CE14A4A136823F0F80317
:1008AC00616943EAC1031360DDE7474B00221A601C
:1008BC00FFF790FC0546434B1B6813F0020FD2D098
:1008CC00FFF788FC401B0228F5D9032001E1012029
:1008DC00FFF704FF236813F0040F00F09780394BE7
:1008EC00DB6913F0805F33D1364BDA6942F080520A
:1008FC00DA61DB6903F080530193019B0125344BD2
:10090C001B6813F4807F25D0E368012B36D0002BB5
:10091C004CD103F1804303F504331A6A22F001022F
:10092C001A621A6A22F004021A622CE0274B002287
:10093C001A60FFF74FFC0546224B5B6A13F0020F5F
:10094C00C8D0FFF747FC401B0228F5D90320C0E0B4
:10095C000025D4E71E4A136843F480731360FFF735
:10096C0039FC06461A4B1B6813F4807FCCD1FFF779
:10097C0031FC801B6428F5D90320AAE0114A136AC4
:10098C0043F001031362E36873B3FFF723FC0646DD
:10099C000C4B1B6A13F0020F37D1FFF71BFC801BAB
:1009AC0041F288339842F3D9032092E0052B11D001
:1009BC00044B1A6A22F001021A621A6A22F004022B
:1009CC001A62E0E7001002400000424280044242FA
:1009DC0000700040414B1A6A42F004021A621A6A13
:1009EC0042F001021A62CEE7FFF7F4FB06463B4BDE
:1009FC001B6A13F0020F08D0FFF7ECFB801B41F2CF
:100A0C0088339842F3D9032063E0E5B9E369002BFE
:100A1C005ED0324A526802F00C02082A5BD0022BDC
:100A2C0017D02F4B00221A60FFF7D4FB04462B4B38
:100A3C001B6813F0007F47D0FFF7CCFB001B02288C
:100A4C00F5D9032045E0254AD36923F08053D361BF
:100A5C00DCE7234B00221A60FFF7BCFB05461F4B5B
:100A6C001B6813F0007F06D0FFF7B4FB401B022875
:100A7C00F5D903202DE0236AB3F5803F1AD017492E
:100A8C004B6823F47413226A606A024313434B606D
:100A9C00134B01221A60FFF79DFB04460F4B1B689A
:100AAC0013F0007F0ED1FFF795FB001B0228F5D940
:100ABC0003200EE0094A536823F40033A1680B436A
:100ACC005360DCE7002004E0002002E0012000E09D
:100ADC00002002B070BD0120FBE700BF00100240F7
:100AEC006000424210B487B0164C94E80F000DF130
:100AFC00180C0CE90F00238AADF80430124B5B681C
:100B0C0003F00C02082A1AD1C3F38342624412F890
:100B1C00102C13F4803F05D10C4800FB02F007B0F9
:100B2C0010BC7047084B5B68C3F34043634413F835
:100B3C00143C074800FB02F0B0FBF3F0EFE704486D
:100B4C00EDE700BF503400080010024000093D00E2
:100B5C0000127A00594B1B6803F007038B420CD22E
:100B6C00564A136823F007030B431360136803F012
:100B7C0007038B4201D00120704770B5036813F056
:100B8C00020F06D04E4A536823F0F00384682343C7
:100B9C0053600C460546036813F0010F52D04368AE
:100BAC00012B23D0022B28D0454A126812F0020FD9
:100BBC0000F0828042494A6822F0030213434B60E2
:100BCC00FFF708FB06466B68012B1DD0022B2AD0C1
:100BDC003B4B5B6813F00C0F34D0FFF7FBFA801B18
:100BEC0041F288339842F3D9032064E0344A126806
:100BFC0012F4003FDED101205DE0314A126812F0A0
:100C0C00007FD7D1012056E02D4B5B6803F00C031D
:100C1C00042B17D0FFF7DEFA801B41F28833984281
:100C2C00F2D9032047E0264B5B6803F00C03082B3A
:100C3C0008D0FFF7CFFA801B41F288339842F2D9E3
:100C4C00032038E01D4B1B6803F00703A3420CD9AB
:100C5C001A4A136823F0070323431360136803F045
:100C6C000703A34201D0012025E02B6813F0040FE9
:100C7C0006D0134A536823F4E063E9680B435360CE
:100C8C002B6813F0080F07D00D4A536823F46053F8
:100C9C00296943EAC1035360FFF724FF084B5B68E3
:100CAC00C3F30313074AD35CD840074B18600020EA
:100CBC00FFF74EFA002070BD0120FCE70020024037
:100CCC00001002406434000808000020014B186832
:100CDC00704700BF0800002008B5FFF7F7FF044B72
:100CEC005B68C3F30223034AD35CD84008BD00BF42
:100CFC00001002407434000808B5FFF7E7FF044BFE
:100D0C005B68C3F3C223034AD35CD84008BD00BF61
:100D1C00001002407434000800283CD010B5044682
:100D2C000023836290F85130002B31D0022384F8D9
:100D3C0051302268136823F0400313606368A26883
:100D4C001343E26813432269134362691343A26994
:100D5C0002F400721343E2691343226A1343A16A3B
:100D6C0022680B431360638B03F00403616A2268EF
:100D7C000B4353602368E26A1A612268D36923F437
:100D8C000063D36100206065012384F8513010BDED
:100D9C0001F074F8CAE701207047000070B4036AD0
:100DAC0023F001030362036A4268846924F073042C
:100DBC000D6845EA040623F002048B6823430D4DAD
:100DCC00A84209D00B4DA8420DD0426086614A68FA
:100DDC004263036270BC704723F00803CC68234362
:100DEC0023F00403EEE722F440724C6914438A6941
:100DFC002243EAE7002C014030B4036A23F48073E9
:100E0C000362036A4268C46924F073040D682C43BE
:100E1C0023F400738D6843EA05230F4DA84209D0D3
:100E2C000D4DA8420ED04260C4614A68C263036291
:100E3C0030BC704723F40063CD6843EA052323F4E8
:100E4C008063EDE722F440524D6942EA05128D6948
:100E5C0042EA0512E7E700BF002C014030B4036AF8
:100E6C0023F480530362036A4468C26922F4E642A5
:100E7C000D6842EA052223F400538D6843EA0533DA
:100E8C00074DA84206D04460C2614A6802640362FE
:100E9C0030BC704724F480444D6944EA8514F2E771
:100EAC00002C01407047704770477047704710B571
:100EBC00044603681A6912F0020F11D0DA6812F0B6
:100ECC00020F0DD06FF002021A6101230377036841
:100EDC009B6913F0030F70D0FFF7E6FF0023237715
:100EEC0023681A6912F0040F12D0DA6812F0040F9A
:100EFC000ED06FF004021A610223237723689B69DA
:100F0C0013F4407F5FD02046FFF7CEFF00232377FA
:100F1C0023681A6912F0080F12D0DA6812F0080F61
:100F2C000ED06FF008021A61042323772368DB6963
:100F3C0013F0030F4ED02046FFF7B6FF00232377A4
:100F4C0023681A6912F0100F12D0DA6812F0100F21
:100F5C000ED06FF010021A61082323772368DB6927
:100F6C0013F4407F3DD02046FFF79EFF00232377EC
:100F7C0023681A6912F0010F03D0DA6812F0010F1E
:100F8C0036D123681A6912F0800F03D0DA6812F098
:100F9C00800F34D123681A6912F0400F03D0DA683D
:100FAC0012F0400F32D123681A6912F0200F03D0CF
:100FBC00DA6812F0200F30D110BDFFF774FF204615
:100FCC00FFF773FF8AE72046FFF76DFF2046FFF718
:100FDC006CFF9BE72046FFF766FF2046FFF765FF97
:100FEC00ACE72046FFF75FFF2046FFF75EFFBDE74B
:100FFC006FF001021A612046FFF754FFC1E76FF052
:10100C0080021A61204600F02DF9C3E76FF0400210
:10101C001A612046FFF74AFFC5E76FF020021A61FC
:10102C00204600F01EF9C7E703681B4A90420AD01D
:10103C00B0F1804F07D0A2F59432904203D002F564
:10104C008062904203D123F070034A681343124A22
:10105C0090420AD0B0F1804F07D0A2F59432904262
:10106C0003D002F58062904203D123F44073CA6826
:10107C00134323F080034A69134303608B68C362F4
:10108C000B688362044B984202D001234361704782
:10109C000B690363F9E700BF002C0140A8B110B540
:1010AC00044690F83D305BB1022384F83D30211D9D
:1010BC002068FFF7B9FF012384F83D30002010BDF4
:1010CC0080F83C3000F006FFEEE70120704700008E
:1010DC0030B4036A23F010030362036A4468826924
:1010EC0022F4E6420D6842EA052223F020038D68C3
:1010FC0043EA05130E4DA84209D00D4DA8420ED05F
:10110C00446082614A688263036230BC704723F09A
:10111C008003CD6843EA051323F04003EDE724F484
:10112C0040644D6944EA85048D6944EA8504E7E727
:10113C00002C014038B590F83C30012B66D00D46A0
:10114C000446012380F83C30022380F83D300C2A01
:10115C001AD8DFE802F007191919201919193419CE
:10116C00191947000068FFF719FE2268936943F0CC
:10117C00080393612268936923F004039361226846
:10118C00936929690B439361012384F83D30002056
:10119C0084F83C0038BD0068FFF79AFF2268936919
:1011AC0043F4006393612268936923F48063936131
:1011BC0022689369296943EA01239361E4E7006893
:1011CC00FFF71AFE2268D36943F00803D361226843
:1011DC00D36923F00403D3612268D36929690B43D3
:1011EC00D361D1E70068FFF739FE2268D36943F475
:1011FC000063D3612268D36923F48063D3612268CE
:10120C00D369296943EA0123D361BDE70220C1E711
:10121C0090F83C30012B22D030B4012280F83C20D5
:10122C00022380F83D300468636823F07003636028
:10123C00046863680D682B4363600468A36823F03B
:10124C008003A3600468A36849680B43A36080F81B
:10125C003D20002380F83C30184630BC70470220FB
:10126C007047704770470268D36823F49073D3605B
:10127C000268536923F001035361202380F83A304C
:10128C00704790F83930DBB2212B2AD18368B3F543
:10129C00805F16D0036A5A1C02621A7803685A607F
:1012AC00C38C013B9BB2C384EBB90268D36823F0B7
:1012BC008003D3600268D36843F04003D3600020FE
:1012CC007047036A1B880268C3F308035360036901
:1012DC001BB9036A02330362E2E7036A0133036258
:1012EC00DEE7022070470020704700002DE9F8432C
:1012FC0005460268136923F44053C1680B4313611C
:10130C00836802691343426913430168CA6822F473
:10131C00B05222F00C021343CB600268536923F4E1
:10132C00407381690B4353610268594B9A4257D001
:10133C00FFF7D2FC00EB800000EB80006C68A4008F
:10134C00B0FBF4F4534FA7FB043464092601FFF7F8
:10135C00C3FC00EB800000EB80006C68A400B0FBC9
:10136C00F4F9FFF7B9FC00EB800000EB80006C682F
:10137C00A400B0FBF4F4A7FB043464094FF0640838
:10138C0008FB149424013234A7FB0434640904F0E0
:10139C00F0043444FFF7A0FC00EB800000EB80006D
:1013AC006E68B600B0FBF6F6FFF796FC00EB80001B
:1013BC0000EB80006B689B00B0FBF3F0A7FB0030E8
:1013CC00400908FB10684FEA081808F13208A7FB1F
:1013DC000837C7F343172B6827449F60BDE8F88391
:1013EC00FFF78AFC00EB800000EB80006C68A40027
:1013FC00B0FBF4F4274FA7FB043464092601FFF774
:10140C007BFC00EB800000EB80006C68A400B0FB60
:10141C00F4F9FFF771FC00EB800000EB80006C68C6
:10142C00A400B0FBF4F4A7FB043464094FF0640887
:10143C0008FB149424013234A7FB0434640904F02F
:10144C00F0043444FFF758FC00EB800000EB800004
:10145C006E68B600B0FBF6F6FFF74EFC00EB8000B2
:10146C0000EB80006B689B00B0FBF3F0A7FB003037
:10147C00400908FB10684FEA081808F13208A7FB6E
:10148C000837C7F343172B6827449F60A6E700BFB4
:10149C00003801401F85EB512DE9F04105460F4600
:1014AC0016469846069C2B681B6837EA03030CBF4C
:1014BC0001230023B3421DD1B4F1FF3FF3D02CB173
:1014CC00FEF788FEA0EB0800A042ECD92A68D3688E
:1014DC0023F4D073D3602A68536923F0010353615A
:1014EC00202385F8393085F83A30002385F83830D8
:1014FC00032000E00020BDE8F08158B310B504468D
:10150C0090F839300BB3242384F839302268D3682F
:10151C0023F40053D3602046FFF7E8FE22681369DA
:10152C0023F4904313612268536923F02A03536117
:10153C002268D36843F40053D3600020E063202377
:10154C0084F8393084F83A3010BD80F8383000F027
:10155C00EBFCD8E7012070472DE9F04182B01E4624
:10156C0090F83930DBB2202B55D104460D4690460D
:10157C00002955D0002A55D090F83830012B53D083
:10158C00012380F838300023C363212380F83930DD
:10159C00FEF720FE0746A4F82480A4F8268010E06D
:1015AC0000963B46002280212046FFF775FF00285D
:1015BC003CD12B882268C3F3080353602369C3B959
:1015CC000235E38C9BB2B3B1E38C013B9BB2E38459
:1015DC00A368B3F5805FE3D000963B4600228021E0
:1015EC002046FFF759FF18BB2A7823685A6001354B
:1015FC00E7E70135E5E700963B460022402120460F
:10160C00FFF74AFF0346A8B9202284F839200022AC
:10161C0084F8382000E00223184602B0BDE8F081BF
:10162C000123F9E70123F7E70223F5E70323F3E7A7
:10163C000323F1E70323EFE790F83A30DBB2202BDA
:10164C0020D109B312B390F83830012B20D081622D
:10165C008285C2850023C363222280F83A2080F859
:10166C0038300168CA6842F48072CA6001684A69FD
:10167C0042F001024A610168CA6842F02002CA6065
:10168C0018467047022070470120704701207047B0
:10169C0002207047704708B50168CB6823F04003FF
:1016AC00CB60202380F83930FFF7F4FF002008BD11
:1016BC0008B590F83A30DBB2222B45D18368B3F5EC
:1016CC00805F0ED0036903BB03685A68836A591C98
:1016DC0081621A70C38D013B9BB2C385F3B10020AC
:1016EC0033E0826A036943B903685B68C3F3080398
:1016FC001380836A02338362ECE703685B68DBB2B6
:10170C001380836A01338362E4E703685B68826A4F
:10171C00511C816203F07F031370DBE70268D3680E
:10172C0023F02003D3600268D36823F48073D36062
:10173C000268536923F001035361202380F83A3087
:10174C0000F0E4F9002000E0022008BD7047000022
:10175C0010B5044602681368D168526913F00F0083
:10176C0005D113F0200F02D011F0200F53D1002817
:10177C0067D012F0010202D111F4907F61D013F006
:10178C00010F06D011F4807F03D0E06B40F0010014
:10179C00E06313F0040F04D01AB1E06B40F00200C8
:1017AC00E06313F0020F04D01AB1E06B40F00400B8
:1017BC00E06313F0080F04D01AB1E26B42F0080298
:1017CC00E263E26B002A48D013F0200F02D011F034
:1017DC00200F24D123685B6903F04003E26B12F005
:1017EC00080F00D13BB32046FFF73DFD23685A6933
:1017FC0012F0400F1BD05A6922F040025A61636B01
:10180C008BB11A4A5A63606BFEF768FD28B3606BA4
:10181C00436B984721E02046FFF74AFF1DE0204626
:10182C00FFF746FFD6E72046FFF790FF15E020466E
:10183C00FFF78CFF11E02046FFF788FF0023E363DE
:10184C000BE013F0800F02D011F0800F06D113F0D3
:10185C00400F02D011F0400F04D110BD2046FFF70D
:10186C0010FDFAE72046FFF716FFF6E77D18000893
:10187C0008B5406A0023C385C384FFF767FF08BD22
:10188C0038B50E4B1B6883B105460C4601460C4817
:10189C0000F084FC4FF47A73A2B229460748006822
:1018AC00FFF75AFE40B1002038BD0D21054800F06D
:1018BC0075FC4FF0FF30F7E72046F5E78C00002071
:1018CC00983400087C34000810B50F4B1B6873B1BA
:1018DC000E4B19780A2911D101240C4900230B80D5
:1018EC000122094B1868FFF7A7FE204610BD2121E5
:1018FC00074800F053FC4FF0FF34F6E70A46054862
:10190C0000F04CFC0024E8E78C000020A000002034
:10191C007C340008AC34000810B588B00446202292
:10192C000021684600F032FC2346074A0749684606
:10193C0000F0B0FC6846FEF703FC01466846FFF772
:10194C009FFF08B010BD00BFCC340008DC34000889
:10195C0008B5064B186001220549FFF76DFE0421FE
:10196C000448FFF7D9FF002008BD00BF8C00002001
:10197C00A0000020E83400082DE9F04389B03D4B6D
:10198C009A6942F010029A619A6902F01002009270
:10199C00009A9A6942F020029A619A6902F0200238
:1019AC000192019A9A6942F004029A619A6902F0D2
:1019BC0004020292029A9A6942F008029A619B69A7
:1019CC0003F008030393039B2B4D00224FF21931B4
:1019DC002846FEF7B9FD294E00224FF40941304646
:1019EC00FEF7B2FD012220212846FEF7ADFD4FF493
:1019FC0060430493224F05970024069404A92148C0
:101A0C00FEF7B8FC4FF2393304934FF00109CDF8CF
:101A1C00149006944FF00208CDF81C8004A92846B7
:101A2C00FEF7A8FCCDF810800597069404A928466B
:101A3C00FEF7A0FC042304930594069404A92846FD
:101A4C00FEF798FC4FF409430493CDF814900694D8
:101A5C00CDF81C8004A93046FEF78CFC4FF4805363
:101A6C0004930597069404A93046FEF783FC09B04D
:101A7C00BDE8F08300100240000C0140000801405A
:101A8C00000011100010014008B50022114607207B
:101A9C00FEF7B8FB0720FEF7E9FB002211461C20DD
:101AAC00FEF7B0FB1C20FEF7E1FB002211462520BF
:101ABC00FEF7A8FB2520FEF7D9FB002211462620B5
:101ACC00FEF7A0FB2620FEF7D1FB002211462720B3
:101ADC00FEF798FB2720FEF7C9FB002211462820B1
:101AEC00FEF790FB2820FEF7C1FB08BD10B514468D
:101AFC004FF47A7392B20448FFF72EFD08B1002020
:101B0C0010BD2046FCE700BF3801002008B5FFF7E8
:101B1C00DBFE08BDFEE7000008B50B480B4B03606D
:101B2C000B4B436000238360C3604FF4804202611F
:101B3C0043618361C3610362FEF71CFD00B908BDFC
:101B4C00EF210448FFF7E6FFE400002000540040BA
:101B5C00A0860100F834000800B58BB020484FF087
:101B6C0080430360002343608360C360036183612F
:101B7C00FFF794FAF8B900230893099308A91848B9
:101B8C00FFF746FBE0B96023019300220292039217
:101B9C00059201A91248FFF7CDFAB0B904220DEB5A
:101BAC0002010F48FFF7C6FAA0B90D4800F0A6F9DC
:101BBC000BB05DF804FB40F21B110A48FFF7AAFFBB
:101BCC004FF491710748FFF7A5FF40F22B11054820
:101BDC00FFF7A0FF4FF498710248FFF79BFF00BF7F
:101BEC00D0010020F834000808B50B480B4B0360FB
:101BFC004FF4E133436000238360C36003610C2224
:101C0C0042618361C361FFF778FC00B908BD40F203
:101C1C0045110348FFF77EFF3801002000380140D2
:101C2C00F834000808B50B480B4B03604FF4E13354
:101C3C00436000238360C36003610C2242618361B3
:101C4C00C361FFF75AFC00B908BD4FF4AC710348EF
:101C5C00FFF760FF1002002000440040F834000839
:101C6C0008B50B480B4B03604FF41653436000232D
:101C7C008360C36003610C2242618361C361FFF71F
:101C8C003CFC00B908BD40F26B110348FFF742FF62
:101C9C00A400002000480040F834000808B50D48A6
:101CAC000D4B03604FF48273436000238360C36069
:101CBC00036143618361C3610362436283620A23EC
:101CCC00C362FFF729F800B908BD40F207110348B9
:101CDC00FFF720FF7801002000300140F8340008A5
:101CEC0000B591B00223069301230A9310230B93A2
:101CFC0000230D9306A8FEF707FDF0B90F230193FF
:101D0C000021029103910491059101A8FEF722FF95
:101D1C00B8B9FEF7DBFF0D4BA3FB00308009FEF7D3
:101D2C00B1FA0420FEF7C4FA002211464FF0FF303E
:101D3C00FEF768FA11B05DF804FBA9210448FFF71F
:101D4C00E9FEB7210248FFF7E5FE00BFD34D621054
:101D5C00F834000808B5FEF71FFAFFF7C1FFFFF7CC
:101D6C000BFEFFF7D9FEFFF7F7FEFFF73DFFFFF77E
:101D7C0059FFFFF775FFFFF791FFFFF785FE03484B
:101D8C00FFF7E6FD024800F07DFAFBE7A400002017
:101D9C000835000800B583B0244B9A6942F0010263
:101DAC009A619A6902F001020092009ADA6942F093
:101DBC008052DA61DB6903F080530193019B0320AD
:101DCC00FEF70EFA002211466FF00B00FEF71AFA1E
:101DDC00002211466FF00A00FEF714FA0022114699
:101DEC006FF00900FEF70EFA002211466FF00400A6
:101DFC00FEF708FA002211466FF00300FEF702FA14
:101E0C00002211466FF00100FEF7FCF9002211468A
:101E1C004FF0FF30FEF7F6F9054A536823F0E06304
:101E2C0043F00073536003B05DF804FB00100240F4
:101E3C000000014002680E4B9A4200D0704700B57A
:101E4C0087B0C0230293122303930323059302A9A3
:101E5C000848FEF78FFA084BDA6942F40012DA618F
:101E6C00DB6903F400130193019B07B05DF804FBDD
:101E7C0000540040000C0140001002400268134B5B
:101E8C009A4200D0704710B586B003F560439A694A
:101E9C0042F480529A619B6903F480530193019B35
:101EAC0050230293002303930493094C02A9204668
:101EBC00FEF760FAA02302930223039303230593F6
:101ECC0002A92046FEF756FA06B010BD00300140BC
:101EDC00000801400368B3F1804F00D0704782B016
:101EEC0003F50433DA6942F00102DA61DB6903F0CD
:101EFC0001030193019B02B0704700000368B3F12A
:101F0C00804F00D0704700B585B0032300930223A7
:101F1C000193039369460348FEF72CFA05B05DF86C
:101F2C0004FB00BF0008014010B588B00368364AB6
:101F3C00934207D0354A934225D0354A934241D03B
:101F4C0008B010BD334B9A6942F480429A619B6988
:101F5C0003F480430193019B4FF400730493022319
:101F6C000593032307932C4C04A92046FEF702FA91
:101F7C004FF48063049300230593069304A9204631
:101F8C00FEF7F8F9DCE7234BDA6942F40032DA6148
:101F9C00DB6903F400330293029B042304930223B2
:101FAC000593032307931C4C04A92046FEF7E2F982
:101FBC000823049300230593069304A92046FEF7F7
:101FCC00D9F9BDE7134BDA6942F48022DA61DB6997
:101FDC0003F480230393039B4FF480630493022345
:101FEC000593032307930D4C04A92046FEF7C2F971
:101FFC004FF40063049300230593069304A9204631
:10200C00FEF7B8F99CE700BF0038014000440040DF
:10201C00004800400010024000080140000C014044
:10202C007047FEE7FEE7FEE7FEE770477047704734
:10203C0008B5FEF7C3F8FEF74CF908BD08B5022049
:10204C00FEF78AFA08BD000008B50248FEF72FFF1C
:10205C0008BD00BFD001002008B50248FFF778FB8F
:10206C0008BD00BF3801002008B50248FFF770FB1F
:10207C0008BD00BF1002002008B50248FFF768FB3E
:10208C0008BD00BFA400002008B54FF48050FEF737
:10209C0063FA4FF40050FEF75FFA4FF48040FEF7FE
:1020AC005BFA4FF40040FEF757FA08BD0F4B1A6865
:1020BC0042F001021A6059680D4A0A405A601A68C7
:1020CC0022F0847222F480321A601A6822F4802280
:1020DC001A605A6822F4FE025A604FF41F029A608A
:1020EC00044B4FF000629A60704700BF0010024032
:1020FC000000FFF800ED00E0002103E00B4B5B5803
:10210C00435004310A480B4B42189A42F6D30A4A00
:10211C0002E0002342F8043B084B9A42F9D3FFF744
:10212C00C5FF00F00FF8FFF715FE7047B03500083B
:10213C0000000020700000207000002054020020DD
:10214C00FEE7000070B500250C4E0D4CA41BA4102E
:10215C00A54209D101F06AF900250A4E0A4CA41BCC
:10216C00A410A54205D170BD56F82530984701350D
:10217C00EEE756F8253098470135F2E7A835000808
:10218C00A8350008A8350008AC3500080346024401
:10219C00934200D1704703F8011BF9E70FB40A4BC7
:1021AC0013B51C6824B1A36913B9204600F042FA98
:1021BC0005AB049AA1682046019300F047FD02B0DC
:1021CC00BDE8104004B070470C00002070B50E46FE
:1021DC00054618B183690BB900F02CFAAB69AC68F1
:1021EC0013B9284600F026FA234B9C4217D16C6891
:1021FC00A3891B071DD52369DBB1013EA36816F823
:10220C00011F013BA360E9B9002B2EDA22460A21FB
:10221C00284600F05FF8013011D00A2011E0174B6E
:10222C009C4201D1AC68E3E7154B9C4208BFEC68BB
:10223C00DEE72146284600F09FF80028DDD04FF05D
:10224C00FF3070BD002B04DAA2699A4206DC0A2921
:10225C0004D023685A1C22601970CFE72246284606
:10226C0000F038F80130C9D1E9E70A2023685A1C7C
:10227C0022601870E5E700BF3435000854350008BB
:10228C0014350008024B01461868FFF79FBF00BFCA
:10229C000C0000200EB46FF0004100B59CB01DABDB
:1022AC0002900690079104910848094953F8042BB1
:1022BC000591006802A9019300F0AAFB0022029B81
:1022CC001A701CB05DF804EB03B070470C000020D2
:1022DC000802FFFFF8B50E461446054618B183698F
:1022EC000BB900F0A7F9214B9C422AD16C68A36969
:1022FC00A360A3891A072ED5236963B323692068C9
:10230C00F6B2C01A63693746834204DC214628467C
:10231C0000F026F928BBA3680130013BA3602368B9
:10232C005A1C22601E706369834204D0A389DB07A8
:10233C0019D50A2E17D12146284600F011F990B173
:10234C000FE00B4B9C4201D1AC68D0E7094B9C428F
:10235C0008BFEC68CBE72146284600F00DF80028B2
:10236C00CCD04FF0FF373846F8BD00BF34350008ED
:10237C005435000814350008324B70B51D680646FC
:10238C000C4625B1AB6913B9284600F053F92E4B16
:10239C009C420FD16C68B4F90C309AB215072CD44E
:1023AC00D00611D40922326043F04003A3814FF0D0
:1023BC00FF303EE0254B9C4201D1AC68EBE7244B4F
:1023CC009C4208BFEC68E6E7510712D5616B41B13E
:1023DC0004F14403994202D0304600F019FA00236C
:1023EC006363A38923F02403A3810023636023691F
:1023FC002360A38943F00803A38123694BB9A38904
:10240C0003F42073B3F5007F03D02146304600F06F
:10241C00BFF9A28912F001030CD00023A3606369F9
:10242C005B42A361236953B9B4F90C3013F08000FB
:10243C00BAD170BD920758BF6369A360F2E7002060
:10244C00F7E700BF0C0000203435000854350008B5
:10245C00143500088A892DE9F041054610070C4611
:10246C0058D44B68002B05DC0B6C002B02DC0020D5
:10247C00BDE8F081E66A002EF9D0002312F48052F8
:10248C002F68216A2B6032D0606DA3895A0705D55D
:10249C006368C01A636B0BB1236CC01A002302462D
:1024AC00E66A216A2846B047431CA38906D12968ED
:1024BC001D2948D8294ACA40D60744D50022626053
:1024CC002269D904226004D5421C01D12B6803B9BE
:1024DC006065616B2F600029C9D004F144039942F7
:1024EC0002D0284600F094F900206063C0E7012375
:1024FC002846B047411CC8D12B68002BC5D01D2BDA
:10250C0001D0162B01D12F60B1E7A38943F0400312
:10251C00A381ADE70F69002FA9D0930718BF002343
:10252C000E6808BF4B69A6EB07080F608B60B8F10B
:10253C00000F9CDD43463A46216A2846A66AB047FE
:10254C00002806DCA38943F04003A3814FF0FF3041
:10255C008EE70744A8EB0008E9E700BF0100402024
:10256C0038B50B6905460C46DBB118B183690BB95C
:10257C0000F060F80C4B9C4209D16C68B4F90C303B
:10258C007BB121462846BDE83840FFF763BF074BB7
:10259C009C4201D1AC68F1E7054B9C4208BFEC684A
:1025AC00ECE7002038BD00BF343500085435000876
:1025BC0014350008002310B50446C0E900338360CD
:1025CC0081814366C281C0E90433836119460822C4
:1025DC005C30FFF7DBFD054B24626362044BA362A6
:1025EC00044BE362044B236310BD00BFB131000800
:1025FC00D33100080B3200082F320008014900F0DB
:10260C0085B800BF6D25000870B568254A1E554376
:10261C000E4605F1740100F047F9044640B1002163
:10262C00C0E900160C30A06005F16802FFF7AEFDA2
:10263C00204670BD836910B5044633BBC0E9123324
:10264C000365124B124A1B688262984204BF012335
:10265C00836100F01FF86060204600F01BF8A0605A
:10266C00204600F017F80022E06004216068FFF7B4
:10267C00A1FF01220921A068FFF79CFF0222122171
:10268C00E068FFF797FF0123A36110BD1035000828
:10269C0009260008F8B51B4B07461E68B36913B929
:1026AC003046FFF7C7FF4836D6E90134013B03D566
:1026BC00336833B13668F7E7B4F90C506DB1683450
:1026CC00F4E704213846FFF79FFF30600028F1D172
:1026DC000C2304463B602046F8BD0B4B6566C4E9F1
:1026EC000055A560C4E90335C4E9055508222946FF
:1026FC0004F15C00FFF74AFDC4E90D55C4E912551D
:10270C00E9E700BF103500080100FFFF2DE9F84391
:10271C0080468946002600F1480414B93046BDE8CD
:10272C00F883D4E90175013F01D52468F5E7AB893D
:10273C00012B07D9B5F90E30013303D02946404699
:10274C00C84706436835EEE770B50E46B1F90E1072
:10275C0096B0002914461D4607DA00232B60B38976
:10276C001A0610D44FF480630EE06A4600F080FD28
:10277C000028F2DB019A02F47042A2F500535A428F
:10278C005A412A60EEE740230020236016B070BD4A
:10279C008B8973B59D0706460C4607D504F1470394
:1027AC00236023610123636102B070BD01AB6A46F3
:1027BC00FFF7CAFF00990546304600F075F848B996
:1027CC00B4F90C309A05EFD423F0030343F0020361
:1027DC00A381E3E70D4BB362A389206043F0800330
:1027EC00A381009B20616361019B5BB1B4F90E1066
:1027FC00304600F04FFD28B1A38923F0030343F0CA
:10280C000103A381A3891D43A581CDE709260008F7
:10281C0038B50546002943D051F8043C0C1F002B59
:10282C00B8BFE41800F08AFD1E4A1368104633B98D
:10283C00636014602846BDE8384000F080BDA342B8
:10284C000BD921686218934201BF1A685B68521851
:10285C00226063600460EDE713465A680AB1A24235
:10286C00FAD919685818A0420BD12068014458189D
:10287C0082421960DED110685268014419605A60B6
:10288C00D8E702D90C232B60D4E7206821188A42A0
:10289C0001BF116852680918216062605C60C9E769
:1028AC0038BD00BF9000002070B5CD1C25F003058D
:1028BC0008350C2D38BF0C25002D064601DBA9422E
:1028CC0003D90C233360002070BD00F037FD214A82
:1028DC001468214691B9204C23681BB9304600F08E
:1028EC0051FC20602946304600F04CFC431C24D19E
:1028FC000C233046336000F022FDE4E70B685B1BD1
:10290C0018D40B2B0FD90B60CC18CD50304600F0DF
:10291C0016FD04F10B00231D20F00700C31AD3D0C1
:10292C005A42E250D0E74B688C4216BF636013608A
:10293C000C46EBE70C464968CCE7C41C24F00304B6
:10294C00A04205D0211A304600F01CFC0130CFD03B
:10295C002560DBE790000020940000202DE9F04773
:10296C008E6882469E420C469046994637D88A8994
:10297C0012F4906F31D00223256809696F1A6569CA
:10298C0005EB450595FBF3F509F101033B449D422D
:10299C0038BF1D46530530D52946FFF785FF06463F
:1029AC0050B90C234FF0FF30CAF80030A38943F024
:1029BC004003A381BDE8F0873A46216900F09AFCF8
:1029CC00A38923F4906343F08003A38126613E44E2
:1029DC0026604E466561ED1BA5604E4500D94E46FE
:1029EC0032464146206800F090FCA36800209B1BF7
:1029FC00A36023681E442660DCE72A4600F0A0FC96
:102A0C0006460028E2D121695046FFF701FFC8E7CE
:102A1C002DE9F04F9DB003938B8980461D060C4623
:102A2C0016460FD50B696BB94021FFF73DFF2060AF
:102A3C00206128B90C23C8F800304FF0FF30C7E0F4
:102A4C00402363610023099320238DF82930302320
:102A5C004FF0010B8DF82A3037463D4615F8013BF7
:102A6C000BB1252B3ED1B7EB060A0BD053463246A1
:102A7C0021464046FFF772FF013000F0A480099B0D
:102A8C00534409933B78002B00F09D8000234FF0BA
:102A9C00FF32CDE90523049307938DF853301A9335
:102AAC002F46052217F8011B4F4800F015FC049B1C
:102ABC00D0B9D90644BF20228DF853201A0744BF41
:102ACC002B228DF853202A782A2A15D02F46002045
:102ADC000A25079A394611F8013B303B092B4DD991
:102AEC00B8B10FE02F46B8E73F4A3D46801A0BFAC3
:102AFC0000F018430490D3E7039A111D1268039158
:102B0C00002A01DB079204E0524243F002030792D1
:102B1C0004933B782E2B0CD17B782A2B33D1039B3F
:102B2C0002371A1D1B680392002BB8BF4FF0FF33FE
:102B3C0005932E4D03223978284600F0CDFB38B191
:102B4C004023401B03FA00F0049B0137034304931A
:102B5C003978062226487E1C8DF8281000F0BCFB24
:102B6C00002838D0234B13BB039B073323F00703F8
:102B7C0008330393099B4B4409936DE705FB023221
:102B8C0001200F46A6E700230A25194601370593B5
:102B9C00384610F8012B303A092A03D9002BC8D03B
:102BAC000591C6E705FB012101230746F0E703ABBE
:102BBC0000932246104B04A94046AFF30080B0F1BD
:102BCC00FF3F8146D6D1A3895B063FF536AF099806
:102BDC001DB0BDE8F08F03AB00932246064B04A951
:102BEC00404600F0BDF9EAE7743500087A35000874
:102BFC007E3500080000000069290008936810B4B5
:102C0C00013B002B936007DA9469A34201DB0A298C
:102C1C0002D110BCFFF75EBB1368581C1060197012
:102C2C00084610BC7047F8B506460F461446D51832
:102C3C00AC4201D1002007E03A4614F8011B3046A3
:102C4C00FFF7DCFF431CF3D1F8BD00002DE9F04F7A
:102C5C009DB00C4617460393064618B183690BB911
:102C6C00FFF7E8FC7B4B9C4257D17468A38918078B
:102C7C005DD52369002B5AD00023099320238DF8AE
:102C8C00293030234FF0010B8DF82A30B8464546D9
:102C9C0015F8013B0BB1252B54D1B8EB070A0BD01F
:102CAC0053463A4621463046FFF7BDFF013000F04F
:102CBC00C280099B5344099398F80030002B00F014
:102CCC00BA8000234FF0FF32CDE90523049307931C
:102CDC008DF853301A93A846052218F8011B5E484C
:102CEC0000F0FAFA049B78BBD90644BF20228DF879
:102CFC0053201A0744BF2B228DF853202A782A2AF6
:102D0C002AD0A84600200A25079A414611F8013B13
:102D1C00303B092B69D960B324E0504B9C4201D164
:102D2C00B468A3E74E4B9C4208BFF4689EE721466B
:102D3C003046FFF721FB00289ED04FF0FF301DB02E
:102D4C00BDE8F08FA846A2E7434A4546801A0BFA25
:102D5C0000F018430490BEE7039A111D126803910A
:102D6C00002A01DB079204E0524243F0020307926F
:102D7C00049398F800302E2B0ED198F801302A2BA2
:102D8C0038D1039B08F102081A1D1B680392002B13
:102D9C00B8BF4FF0FF330593324D032298F8001063
:102DAC00284600F099FA40B14023401B03FA00F08A
:102DBC00049B08F101080343049398F800100622C1
:102DCC00294808F101078DF8281000F085FA002831
:102DDC0037D0264B1BBB039B073323F00703083369
:102DEC000393099B4B44099350E705FB02320120E6
:102DFC0088468AE700230A25194608F1010805933D
:102E0C00404610F8012B303A092A03D9002BC3D0C5
:102E1C000591C1E705FB012101238046F0E703ABD7
:102E2C0000932246124B04A93046AFF30080B0F158
:102E3C00FF3F8146D5D1A3895B063FF57EAF09984C
:102E4C007DE703AB00932246094B04A9304600F002
:102E5C0087F8ECE734350008743500085435000861
:102E6C00143500087A3500087E3500080000000093
:102E7C00332C00082DE9F04791461F468A680B69F0
:102E8C0006469342B8BF1346C9F8003091F8432068
:102E9C000C46DDF8208012B10133C9F800302368EC
:102EAC00990642BFD9F800300233C9F800302568C2
:102EBC0015F0060507D104F1190AE368D9F80020CA
:102ECC009B1AAB4229DC94F843302268003318BFBC
:102EDC00012392062ED404F1430239463046C047F2
:102EEC00013021D02368E56803F00603042B18BFDA
:102EFC000025D9F800204FF0000908BFAD1AA368CF
:102F0C00226908BF25EAE5759342C4BF9B1AED18E8
:102F1C001A344D451AD1002008E001235246394697
:102F2C003046C047013003D14FF0FF30BDE8F08789
:102F3C000135C2E73020E11881F843005A1C94F89F
:102F4C0045102244023382F84310C4E70123224681
:102F5C0039463046C0470130E6D009F10109D8E7BF
:102F6C002DE9F04301F1430C0C46097E85B06E2926
:102F7C001746064698460C9A00F0B38022D863296F
:102F8C0036D00AD8002900F0B980582900F0838087
:102F9C0004F1420584F8421032E0642901D0692919
:102FAC00F6D120681368050603F104012AD51B68C5
:102FBC001160002B03DA2D225B4284F843206F480A
:102FCC000A2239E0732900F09D8008D86F2920D09F
:102FDC007029DDD1236843F02003236003E07529B9
:102FEC0017D07829D4D17823654884F8453055E03A
:102FFC00136804F14205191D1B68116084F84230F6
:10300C0001238CE01B6810F0400F116018BF1BB23D
:10301C00CFE713682568181D1060280601D51B68BA
:10302C0002E06806FBD51B886F2914BF0A22082210
:10303C005248002184F843106568002DA560C0F249
:10304C009580216821F004012160002B3DD1002DD9
:10305C0040F08E806546082A0BD12368DB0708D523
:10306C00236962689A42DEBF302305F8013C05F102
:10307C00FF35ACEB05032361CDF800803B4603AA7A
:10308C0021463046FFF7F6FE01304DD14FF0FF30B0
:10309C0005B0BDE8F083394884F845101368216801
:1030AC001D1D1B6815600A060BD5CA0744BF41F0ED
:1030BC00200121601BB9226822F02002226010221C
:1030CC00B7E74D0648BF9BB2EFE76546B3FBF2F19D
:1030DC0002FB1133C35C05F8013D0B460029F5D109
:1030EC00B9E713682568181D6169106028061B680C
:1030FC0001D5196002E06A06FBD5198000236546EC
:10310C002361B9E71368191D11601D6862680021FD
:10311C00284600F0E1F808B1401B60606368236149
:10312C00002384F84330A7E723692A463946304602
:10313C00C0470130AAD023689B0713D4E068039BD7
:10314C009842B8BF1846A3E701234A463946304691
:10315C00C04701309AD00135E368039A9B1AAB4201
:10316C00F2DCEBE7002504F11909F5E7002BACD1F3
:10317C00037804F1420584F842306CE78535000889
:10318C009635000838B50023054C054608462360E3
:10319C0000F03EF9431C02D1236803B12B6038BD0B
:1031AC005002002010B50C46B1F90E1000F0EEF8EC
:1031BC000028ABBF636DA3891B1823F48053ACBFED
:1031CC006365A38110BD2DE9F0411F468B8905462F
:1031DC00DB050C46164605D502230022B1F90E106C
:1031EC0000F068F8A389324623F48053A381B4F924
:1031FC000E103B462846BDE8F04100F017B810B55C
:10320C000C46B1F90E1000F055F8431CA38915BFFC
:10321C00606523F4805343F48053A38118BFA381CA
:10322C0010BDB1F90E1000F013B8000038B505460A
:10323C00084611460022054C22601A46FEF756FC41
:10324C00431C02D1236803B12B6038BD500200200F
:10325C0038B50023054C05460846236000F0B0F84D
:10326C00431C02D1236803B12B6038BD50020020EF
:10327C0038B50023064C054608461146236000F07D
:10328C00A7F8431C02D1236803B12B6038BD00BFE3
:10329C005002002038B50023054C05460846236033
:1032AC0000F09EF8431C02D1236803B12B6038BD9B
:1032BC005002002038B50546084611460022054C40
:1032CC0022601A4600F094F8431C02D1236803B123
:1032DC002B6038BD5002002010B5C9B20244904298
:1032EC00034601D1002303E01C7801308C42F6D157
:1032FC00184610BD10B5431E0A44914200D110BDB2
:10330C0011F8014B03F8014FF7E7884210B501EBB8
:10331C00020307D8421E99420AD011F8014B02F859
:10332C00014FF8E78342F5D98118D21AD34200D164
:10333C0010BD13F8014D01F8014DF7E770477047C8
:10334C00F8B5074614460E4621B9BDE8F8401146BB
:10335C00FFF7AABA22B9FFF75BFA25462846F8BD53
:10336C0000F026F8A0420FD221463846FFF79CFA0F
:10337C0005460028F2D031462246FFF7BBFF314606
:10338C003846FFF745FAE9E73546E7E738B505462D
:10339C00084611460022054C22601A4600F030F80F
:1033AC00431C02D1236803B12B6038BD50020020AE
:1033BC0051F8043C181F002BBCBF0B58C0187047A9
:1033CC005822024B4FF0FF301A6070475002002019
:1033DC005822024B4FF0FF301A6070475002002009
:1033EC005822024B00201A60704700BF5002002088
:1033FC005822024B4FF0FF301A60704750020020E9
:10340C005822024B4FF0FF301A60704750020020D8
:10341C00044A05491368002B08BF0B46184410607A
:10342C00184670479800002058020020F8B500BFDD
:10343C00F8BC08BC9E467047F8B500BFF8BC08BC89
:04344C009E467047E1
:1034500002030405060708090A0B0C0D0E0F1010D5
:10346000010200000000000000000000010203044F
:103470000607080900000000010203045B68632DD1
:1034800030365D2075617274206973204E554C4C46
:10349000282564290D0A00005B68632D30365D2005
:1034A00073656E64203A2025730D0A005B68632DF6
:1034B00030365D2072656365697665203A20307824
:1034C0002578282563290D0A0000000041542B00AF
:1034D00025734241554425640000000025734E4188
:1034E0004D45257300000000636F2D6D0000000046
:1034F000257350494E2573002E2E2F5372632F6D66
:1035000061696E2E63000000746573740D00000025
:10351000100000200000000000000000000000007B
:10352000000000000000000000000000000000009B
:10353000000000000000000000000000000000008B
:10354000000000000000000000000000000000007B
:10355000000000000000000000000000000000006B
:10356000000000000000000000000000000000005B
:1035700000000000232D302B2000686C4C00656695
:1035800067454647003031323334353637383941B4
:1035900042434445460030313233343536373839CA
:0835A0006162636465660000CE
:0435A80031010008E5
:0435AC000D01000805
:1035B000010000001000000000A24A0410000020DA
:1035C00000000000343500085435000814350008A8
:1035D00000000000000000000000000000000000EB
:1035E00000000000000000000000000000000000DB
:1035F00000000000000000000000000000000000CB
:1036000000000000000000000000000000000000BA
:1036100000000000000000000000000000000000AA
:0400000508002105C9
:00000001FF
